:020000042002D8
:100000007370043097810FE89381C16117920FE8F4
:100010001302425B170112E81301C1FE9302002094
:1000200073A0027D9702FEE79382C2FD7390723047
:100030009702FEE7938202117390C27E73E0C07E46
:100040009702000093820214739052309302F003DF
:1000500073B0523073E05130996273B002308962EC
:1000600073A0023073F00232170500001305C515A6
:100070009705FEE7938505F96300B5021786FFE74C
:10008000130646BB63FAC5008322050023A0550072
:1000900011059105E3EAC5FE17850100130505D694
:1000A00097050EE8938505F66300B50217960FE8ED
:1000B0001306465163FAC5008322050023A05500AC
:1000C00011059105E3EAC5FE17950FE81305854F65
:1000D00097B510E89385C59D6377B500232005008B
:1000E0001105E36DB5FE9770FEE7E78060F01765D8
:1000F000FFE7130585259760FFE7E78000249760F9
:10010000FFE7E780C0277D209770FEE7E780206645
:100110009702FEE7938202FB739052309302F00342
:1001200073B0523073E05130A14273A0027D01459B
:1001300081459790FEE7E78000C59770FEE7E7806E
:10014000E06E73005010F5BF1300000013000000B4
:100150001300000013000000130000001300000053
:100160001300000013000000130000001300000043
:100170001300000013000000130000001300000033
:1001800073005010F5BF00000000000000000000E8
:10019000000000000000000000000000000000005F
:1001A000000000000000000000000000000000004F
:1001B00000000000411122C6000801003244410144
:0401C0008280000039
:1001C400BA010008BA010008BA01000824020008B4
:1001D400BA010008BA010008BA010008000D0008BD
:1001E400BA010008BA010008BA010008BA010008FF
:1001F400BA010008BA010008BA010008BA010008EF
:10020400BA010008BA010008BA01000800000000A1
:1002140000000000000000000000000000000000DA
:1002240000000000000000000000000000000000CA
:100234000000000000000000A68700080000000085
:1002440000000000B0890008000000000000000069
:10025400000000000000000000000000000000009A
:10026400000000000000000000000000000000008A
:10027400000000000000000000000000000000007A
:10028400731191345D7106C012C216C41AC61EC819
:100294002ACA2ECC32CE36D03AD23ED442DC46DE06
:1002A400F2C0F6C2FAC4FEC673D0E57E7350F67E81
:1002B40073D0B67E732520348A85EF70C00ED25277
:1002C4007390427CC25273901234B25273902234AF
:1002D40082401242A2423243C2435245E245724630
:1002E40082561257A2576258F258064E964E264F1F
:1002F400B64F616173119134730020300000000027
:10030400731191345D7106C012C216C41AC61EC898
:100314002ACA2ECC32CE36D03AD23ED442DC46DE85
:10032400F2C0F6C2FAC4FEC673D0E57E7350F67E00
:1003340073D0B67EF390D07E73700430D252739033
:10034400427CC25273901234B2527390223482406F
:100354001242A2423243C2435245E2457246825699
:100364001257A2576258F258064E964E264FB64F71
:100374006161731191347300203001A013000000F7
:1003840097021400938202E47390023417911100CF
:10039400032181410241824273901234D6527390F8
:1003A40002309240A2423243C2435244E244724574
:1003B40082551256A2563257C2575258E2587259B1
:1003C4008649164AA64A364BC64B564CE64C764DE1
:1003D400865D165EA65E365FC65F130181077300F5
:1003E40020300100130181F806C216C41AC61EC8C3
:1003F40022CA26CC2ACE2ED032D236D43AD63ED8F1
:1004040042DA46DC4ADECEC0D2C2D6C4DAC6DEC880
:10041400E2CAE6CCEACEEED0F2D2F6D4FAD6FED8D0
:10042400F322003096DA9792110083A2E23723A0D8
:100434002200F322103416C0EF00D01B9792110053
:1004440083A2823603A10200824273901234D652F0
:10045400739002309240A2423243C2435244E24477
:10046400724582551256A2563257C2575258E25814
:1004740072598649164AA64A364BC64B564CE64C28
:10048400764D865D165EA65E365FC65F13018107F4
:1004940073002030011122CE00102326A4FE8327EE
:1004A400C4FE138787008327C4FED8C38326C4FEF3
:1004B4007D57FD5798C6DCC68327C4FE1387870083
:1004C4008327C4FE98CB8327C4FE13878700832722
:1004D400C4FED8CB8327C4FE23A0070001007244C6
:1004E40005618280011122CE00102326A4FE8327F9
:1004F400C4FE23AA07000100724405618280797159
:1005040022D60018232EA4FC232CB4FC8327C4FD7C
:10051400DC432326F4FE832784FD0327C4FE98C707
:100524008327C4FED847832784FDD8C78327C4FE06
:10053400DC47032784FD98C78327C4FE032784FD73
:10054400D8C7832784FD0327C4FDD8CB8327C4FDE4
:100554009C43138717008327C4FD98C301003254BA
:1005640045618280797122D60018232EA4FC232CA5
:10057400B4FC832784FD9843DC432320E4FE232238
:10058400F4FE032704FEFD57631DF700032744FE12
:10059400FD576318F7008327C4FDDC4B2326F4FEC4
:1005A40081A08327C4FDA1072326F4FE31A083275D
:1005B400C4FE9C472326F4FE8327C4FE9C4798432D
:1005C400DC43832644FE3E8663ECC600832644FE59
:1005D4003E86E39EC6FC832604FEBA87E3F9F6FC56
:1005E4008327C4FE9847832784FD98C7832784FD07
:1005F4009C47032784FDD8C7832784FD0327C4FEB3
:10060400D8C78327C4FE032784FD98C7832784FDA6
:100614000327C4FDD8CB8327C4FD9C43138717004D
:100624008327C4FD98C301003254456182807971E7
:1006340022D60018232EA4FC8327C4FDDC4B2326DA
:10064400F4FE8327C4FD9C470327C4FD5847D8C73D
:100654008327C4FDDC470327C4FD184798C78327B5
:10066400C4FEDC430327C4FD6318F7008327C4FDDD
:10067400D8478327C4FED8C38327C4FD23AA070011
:100684008327C4FE9C431387F7FF8327C4FE98C3C4
:100694008327C4FE9C433E85325445618280517158
:1006A400A2D78019232CA4F0232EB4F0B70503009D
:1006B4002320B4F6832504F69105232EB4F4832570
:1006C400C4F58C41232CB4F4832584F5232AB4F295
:1006D400832504F6232AB4F4832544F58C41232886
:1006E400B4F4832504F52328B4F2832504F6910594
:1006F4002326B4F48325C4F48C412324B4F4832541
:1007040084F42326B4F2032544F38325C4F2630F4F
:10071400B500832504F62322B4F4832544F48C41E4
:100724002320B4F4832504F42328B4F28325C4F2EB
:100734002E8E814E93170E000147832504F32E86D7
:100744008146B365C700232CB4F2D58F232EF4F26F
:10075400032784F38327C4F32324E4FE2326F4FE2F
:10076400032784F18327C4F1032584FE8325C4FE73
:100774003306A700328E333EEE00B386B700B307CC
:10078400DE00BE863287B687232CE4FA232EF4FAE1
:10079400F32740F1232AF4FA832744FB93F7F70F56
:1007A4002328F4FA832704FB2326F4FA032784FB83
:1007B4008327C4FB2320E4FA2322F4FA8327C4FA10
:1007C400232EF4F88327C4F9A5E7B7070300A1078C
:1007D400232CF4F8832784F9232AF4F8FD572328DB
:1007E400F4F8832704F9032744F91CC30100832781
:1007F40084F99107032744FA1353070081431A87A6
:100804002326F4F82324E4F8832784F80327C4F880
:100814001CC30100832704FA032784F92322E4F884
:100824002320F4F8832704F8032744F81CC385A87D
:100834008327C4F913973700B7570300BA97232EB9
:10084400F4F68327C4F7232CF4F6FD57232AF4F691
:10085400832744F7032784F71CC301008327C4F7C5
:100864009107032744FA1358070081484287232835
:10087400F4F62326E4F68327C4F6032704F71CC3FF
:100884000100832704FA0327C4F72324E4F6232270
:10089400F4F6832744F6032784F61CC30100010001
:1008A40001009D472322F4FC232004FC37070200A7
:1008B400832744FC938707408A07BA9783C7270096
:1008C40093F7F70FB7060200F99B13F7F70F832787
:1008D40044FC938707408A07B6972381E7003707CC
:1008E4000200832744FC938707408A07BA9783C78B
:1008F400270013F7F70F832704FC93F7F70FB706C6
:100904000200D98F13F7F70F832744FC938707401E
:100914008A07B6972381E70001009D472320F4FE50
:10092400A30F04FCB707020083C7070093F7F70F70
:100934008583BD8B230FF4FCB7070200DC43D5830A
:10094400BD8BA30EF4FC8347E4FDF1C70347E4FD2C
:100954008347D4FD63F6E7008347D4FD230FF4FCFB
:100964008347E4FD0547B317F70093F7F70FFD1727
:10097400230EF4FC0347F4FD8347C4FD63F6E7004C
:100984008347C4FDA30FF4FC0347F4FD8347E4FD50
:10099400A146B387F640B317F700A30DF4FC8327F1
:1009A40004FE232AF4FC37070200832744FD9387BF
:1009B40007408A07BA9783C7370093F7F70FA3094D
:1009C400F4FC034734FD8347E4FDB317F700A309A0
:1009D400F4FC034734FD8347E4FDB357F740A30910
:1009E400F4FC0347B4FD834734FDD98F93F7F70F25
:1009F400032704FE2326E4FCA305F4FC37070200C6
:100A04008327C4FC938707408A07BA970347B4FC3B
:100A1400A381E70011A001009D472322F4FE3707BC
:100A24000200832744FE938707408A07BA9783C747
:100A3400170093F7F70FB706020093E7170013F7B1
:100A4400F70F832744FE938707408A07B697A3804E
:100A5400E700010081473E853E546D6182800111AB
:100A640022CE00102326A4FE2324B4FE2322C4FE97
:100A74008327C4FEF1172326F4FE8327C4FE1167DF
:100A84001307078898C38327C4FE938787FA23260E
:100A9400F4FE032744FE8327C4FE98C38327C4FEC1
:100AA400A1172326F4FEB71700081387479183275D
:100AB400C4FE98C38327C4FEF1172326F4FE03273C
:100AC40084FE8327C4FE98C38327C4FE3E857244F4
:100AD40005618280011122CE0010232204FEB78713
:100AE400110803A707E2FD576303F702B78711084C
:100AF40083C747E2A307F4FEB70702000347F4FEE7
:100B0400A385E70001000F00F00F010001A0B787E3
:100B1400110883C747E22307F4FEB707020003471F
:100B2400E4FEA385E70001000F00F00F010019A8FF
:100B340085472324F4FE832784FE73B00781730062
:100B440050100100832744FEE5D7010001007244E0
:100B540005618280797122D60018AA87A30FF4FC5C
:100B6400B707020083C7070093F7F70F8583BD8B90
:100B74002307F4FEB7070200DC43D583BD8BA3062D
:100B8400F4FE0347E4FE8347D4FE63E7E7008347AC
:100B9400E4FEA307F4FE29A08347D4FEA307F4FED2
:100BA4008347F4FE0547B317F70093F7F70FFD17D4
:100BB4002306F4FE0347F4FD8347C4FE63F6E7000F
:100BC4008347C4FEA30FF4FC8347F4FD3E853254EF
:100BD40045618280797122D60018AA87A30FF4FC9C
:100BE400B707020083C7070093F7F70F8583BD8B10
:100BF4002307F4FEB7070200DC43D583BD8BA306AD
:100C0400F4FE230604FE0347E4FE8347D4FE63E7B1
:100C1400E7008347E4FEA307F4FE29A08347D4FE3C
:100C2400A307F4FE8347F4FE2147B307F740A30567
:100C3400F4FE8347F4FE0547B317F70093F7F70F65
:100C4400FD172305F4FE0347F4FD8347A4FE63F672
:100C5400E7008347A4FEA30FF4FC0347F4FD834796
:100C6400B4FEB317F7001397870161878347B4FE77
:100C74008546B397F60093F7F70FFD1793F7F70F31
:100C8400E207E187D98FE207E1872306F4FE834771
:100C9400C4FE3E85325445618280011106CE22CCC9
:100CA40000101D45053FAA873E87B7871108238298
:100CB400E7E21D454535AA873E87B797110823808B
:100CC400E75CA1472326F4FE8327C4FE73B00730F4
:100CD40001007D2DB787110823A007E2EFF04FEA4A
:100CE400EF209067C53B81473E85F2406244056131
:100CF4008280011122CE0010B787110883C747E212
:100D0400A307F4FEB70702000347F4FEA385E70038
:100D140001000F00F00F0100B787110883A707E255
:100D240013871700B787110823A0E7E2B7871108D4
:100D340003A707E28547631FF702B707020083C7CB
:100D4400B70013F7F70FB787110883C747E26303A8
:100D5400F702B787110883C747E22307F4FEB707F2
:100D640002000347E4FEA385E70001000F00F00F33
:100D7400010001A00100724405618280011122CEAC
:100D84000010B787110883A707E295E3B787110816
:100D940083C747E2A307F4FEB70702000347F4FE44
:100DA400A385E70001000F00F00F010001A0B78741
:100DB400110883A707E21387F7FFB787110823A059
:100DC400E7E2B787110883A707E28DE3230704FE50
:100DD4008347E4FEA306F4FEB70702000347D4FEEC
:100DE400A385E70001000F00F00F01000100724429
:100DF40005618280397106DE22DC8000B787110824
:100E040083C747E2A307F4FCB70702000347F4FCD7
:100E1400A385E70001000F00F00F0100F32740F164
:100E24002324F4FE832784FE93F7F70F2322F4FE92
:100E3400832744FE2320F4FE832704FE232EF4FCA0
:100E44008327C4FD85E3370703008567BA9783A723
:100E5400C7FFB706030013F7E7FF8567B69723AE0E
:100E6400E7FE35A08327C4FD13972700B7170300B7
:100E7400BA97232CF4FC832784FD232AF4FC23282B
:100E840004FC832704FD032744FD1CC30100010067
:100E94000100EF20704CA30704FE8347F4FE2307F0
:100EA400F4FEB70702000347E4FEA385E700010050
:100EB4000F00F00F01000100F250625421618280A2
:100EC4000971232E1116232C8116232A2117232876
:100ED400311723264117232451170003B78511081E
:100EE40083C545E2A309B4EAB7050200034534EB20
:100EF400A385A50001000F00F00F01001305701475
:100F04008145232CA4FC232EB4FCB7050300232A1B
:100F1400B4FC832544FD91052328B4FC832504FDFA
:100F24008C412326B4FC8325C4FC2326B4E8832502
:100F340044FD2324B4FC832584FC8C412322B4FC8B
:100F4400832544FC2324B4E8832544FD9105232010
:100F5400B4FC832504FC8C41232EB4FA8325C4FB02
:100F64002322B4E80325C4E8832544E8630FB500CD
:100F7400832544FD232CB4FA832584FB8C41232A46
:100F8400B4FA832544FB2324B4E8832544E82E8A59
:100F9400814A93170A000147832584E82E868146F7
:100FA400B365C7002324B4FAD58F2326F4FA0327A4
:100FB40084FA8327C4FA2320E4FA2322F4FA0326CA
:100FC40084FD8326C4FD032504FA832544FA3307EC
:100FD400A600BA82B3B2C200B387B600B386F200E9
:100FE400B687232CE4F8232EF4F885460327C4F9A6
:100FF400832744FA63EFE7000327C4F9832744FAFD
:101004006318F700032784F9832704FA63E3E700EE
:10101400814693F7F60F63830712032784F9832726
:10102400C4F92328E4F8232AF4F8F32740F123260B
:10103400F4F88327C4F893F7F70F2324F4F88327ED
:1010440084F82322F4F8032704F9832744F9232C92
:10105400E4F6232EF4F6832744F8232AF4F68327B0
:1010640044F7A5E7B7070300A1072328F4F683276D
:1010740004F72326F4F6FD572324F4F6832784F695
:101084000327C4F61CC30100832704F79107032731
:10109400C4F71359070081494A872322F4F6232011
:1010A400E4F6832704F6032744F61CC301008327D0
:1010B40084F7032704F7232EE4F4232CF4F4832782
:1010C40084F50327C4F51CC385A8832744F7139725
:1010D4003700B7570300BA97232AF4F4832744F55B
:1010E4002328F4F4FD572326F4F48327C4F40327B8
:1010F40004F51CC30100832744F591070327C4F7B3
:10110400135F0700814F7A872324F4F42322E4F445
:10111400832744F4032784F41CC30100832784F742
:10112400032744F52320E4F4232EF4F28327C4F3A5
:10113400032704F41CC30100010051AA014781479D
:101144002328E4F2232AF4F2B70703002326F4F257
:101154008327C4F22324F4F2232204F2832744F2E3
:10116400032784F21CC301008327C4F291070327D9
:1011740044F3135E0700814E72872320F4F2232E7A
:10118400E4F08327C4F1032704F21CC3010083277E
:1011940004F30327C4F2232CE4F0232AF4F0832776
:1011A40044F1032784F11CC301000100032784FDDB
:1011B4008327C4FD2324E4F02326F4F0F32740F12D
:1011C4002322F4F0832744F093F7F70F2320F4F05D
:1011D400832704F0232EF4EE032784F08327C4F03E
:1011E4002328E4EE232AF4EE8327C4EF2326F4EE27
:1011F4008327C4EEA5E7B7070300A1072324F4EE71
:10120400832784EE2322F4EEFD572320F4EE832774
:1012140004EE032744EE1CC30100832784EE9107E8
:10122400032744EF1353070081431A87232EF4EC5A
:10123400232CE4EC832784ED0327C4ED1CC30100B5
:10124400832704EF032784EE232AE4EC2328F4EC19
:10125400832704ED032744ED1CC385A88327C4EE2C
:1012640013973700B7570300BA972326F4EC832764
:10127400C4EC2324F4ECFD572322F4EC832744EC40
:10128400032784EC1CC301008327C4EC91070327C4
:1012940044EF13580700814842872320F4EC232E9F
:1012A400E4EA8327C4EB032704EC1CC3010083276F
:1012B40004EF0327C4EC232CE4EA232AF4EA83276B
:1012C40044EB032784EB1CC3010001000100EF2061
:1012D4008061AA87BDCFF32740F12326F4EA832750
:1012E400C4EA93F7F70F2324F4EA832784EA23223A
:1012F400F4EA832744EA2320F4EA832704EA85E313
:10130400370703008567BA9783A7C7FFB7060300AB
:1013140013E717008567B69723AEE7FE3DA0832742
:1013240004EA13972700B7170300BA97232EF4E8AB
:101334008327C4E9232CF4E88547232AF4E8832788
:1013440044E9032784E91CC30100010001000F00E4
:10135400F00FA30904E8834734E92309F4E8B70745
:101364000200034724E9A385E70001000F00F00F02
:10137400010001008320C1170324811703294117A9
:1013840083290117032AC116832A811619618280D1
:10139400597186D6A2D48018130770148147232468
:1013A400E4FE2326F4FE032584FE8325C4FEEFF029
:1013B4000FAF9D47232AF4F837070200832744F927
:1013C400938707408A07BA9783C7170093F7F70FE5
:1013D400B7060200F99B13F7F70F832744F99387A5
:1013E40007408A07B697A380E70001009D4723289A
:1013F400F4FAA30704FAB707020083C7070093F7B8
:10140400F70F8583BD8B2307F4FAB7070200DC438B
:10141400D583BD8BA306F4FA8347E4FAF1C70347E7
:10142400E4FA8347D4FA63F6E7008347D4FA230740
:10143400F4FA8347E4FA0547B317F70093F7F70F75
:10144400FD172306F4FA0347F4FA8347C4FA63F654
:10145400E7008347C4FAA307F4FA0347F4FA83477F
:10146400E4FAA146B387F640B317F700A305F4FAEC
:10147400832704FB2322F4FA37070200832744FA64
:10148400938707408A07BA9783C7370093F7F70F04
:10149400A301F4FA034734FA8347E4FAB317F700D5
:1014A400A301F4FA034734FA8347E4FAB357F74045
:1014B400A301F4FA0347B4FA834734FAD98F93F7B4
:1014C400F70F032704FB232EE4F8A30DF4F83707E2
:1014D40002008327C4F9938707408A07BA97034712
:1014E400B4F9A381E70011A001009D47232CF4FA6D
:1014F400232A04FA37070200832784FB93870740D3
:101504008A07BA9783C7270093F7F70FB706020035
:10151400F99B13F7F70F832784FB938707408A0708
:10152400B6972381E70037070200832784FB93875C
:1015340007408A07BA9783C7270013F7F70F832753
:1015440044FB93F7F70FB7060200D98F13F7F70F91
:10155400832784FB938707408A07B6972381E70094
:1015640001009D47232EF4FA370702008327C4FBAA
:10157400938707408A07BA9783C7170093F7F70F33
:10158400B706020093E7170013F7F70F8327C4FB8E
:10159400938707408A07B697A380E70001008D4729
:1015A4002322F4FC85472320F4FC37070200832719
:1015B40044FC938707408A07BA9783C7270093F7A9
:1015C400F70FB7060200F99B13F7F70F832744FCC4
:1015D400938707408A07B6972381E70037070200FD
:1015E400832744FC938707408A07BA9783C7270059
:1015F40013F7F70F832704FC93F7F70FB7060200DE
:10160400D98F13F7F70F832744FC938707408A0782
:10161400B6972381E70001008D472320F4FEA30F32
:1016240004FCB707020083C7070093F7F70F85830D
:10163400BD8B230FF4FCB7070200DC43D583BD8BBD
:10164400A30EF4FC8347E4FDF1C70347E4FD83479D
:10165400D4FD63F6E7008347D4FD230FF4FC8347EE
:10166400E4FD0547B317F70093F7F70FFD17230EB3
:10167400F4FC0347F4FD8347C4FD63F6E7008347A6
:10168400C4FDA30FF4FC0347F4FD8347E4FDA14626
:10169400B387F640B317F700A30DF4FC832704FEC9
:1016A400232AF4FC37070200832744FD938707406D
:1016B4008A07BA9783C7370093F7F70FA309F4FC97
:1016C400034734FD8347E4FDB317F700A309F4FC93
:1016D400034734FD8347E4FDB357F740A309F4FC03
:1016E4000347B4FD834734FDD98F93F7F70F0327DE
:1016F40004FE2326E4FCA305F4FC37070200832739
:10170400C4FC938707408A07BA970347B4FCA381B4
:10171400E70011A001008D472322F4FE37070200E1
:10172400832744FE938707408A07BA9783C7170025
:1017340093F7F70FB706020093E7170013F7F70FB5
:10174400832744FE938707408A07B697A380E70060
:1017540001000100B650265465618280797122D659
:101764000018F32720342326F4FE8327C4FE2328FD
:10177400F4FC032704FDB7070080F98F95E3B787CE
:10178400110883C747E22303F4FEB70702000347A7
:1017940064FEA385E70001000F00F00F010001A023
:1017A400032704FDB7070080F98FF1CF832704FDD9
:1017B4003E878567FD17F98FB3C707082324F4FE16
:1017C400032784FEC54763F0E70C832784FE2320A8
:1017D400F4FEB707020083C7070093F7F70F85836A
:1017E400BD8BA30FF4FCB7070200DC43D583BD8B8C
:1017F400230FF4FC8347F4FD99E3814791A8034741
:10180400F4FD8347E4FD63F6E7008347E4FDA30F9B
:10181400F4FC832704FE232CF4FC370702008327FF
:1018240084FD938707408A07BA9783C7370093F7E5
:10183400F70FA30BF4FC034774FD8347F4FDA146A3
:10184400B387F640B357F740230BF4FC834764FD9A
:10185400A303F4FEB797110883C7075C034774FE1C
:1018640063F3E702B787110883C747E2A30AF4FCCE
:10187400B7070200034754FDA385E70001000F00EA
:10188400F00F010001A001003254456182803971DA
:1018940006DE22DC80002326A4FC232204FEEF10B3
:1018A400D05CB797110883A7C75C91E3112EB79753
:1018B400110803A7075E8327C4FCF98F639B071AEB
:1018C4008327C4FCB1C7A1470327C4FCBA972326C6
:1018D400F4FC8327C4FC9D8B85CF8327C4FCE19B48
:1018E400A1072326F4FC8327C4FC9D8B95C3B787EB
:1018F400110883C747E2A30FF4FCB70702000347AC
:10190400F4FDA385E70001000F00F00F010001A022
:101914008327C4FC638F0714B797110883A7075D57
:101924000327C4FC63E7E714B79711089387475C60
:101934002324F4FEB79711089387475C9C4323261E
:10194400F4FE11A88327C4FE2324F4FE8327C4FED7
:101954009C432326F4FE8327C4FEDC430327C4FCF4
:1019640063F6E7008327C4FE9C43E9FFB797110899
:1019740083A7C75C0327C4FE630DF70E832784FE89
:101984009843A147BA972322F4FE8327C4FE9843C1
:10199400832784FE98C38327C4FED8438327C4FCCB
:1019A4001D8FA147860763FFE7040327C4FE83272F
:1019B400C4FCBA972320F4FE832704FE9D8B95C3B1
:1019C400B787110883C747E2230FF4FCB707020067
:1019D4000347E4FDA385E70001000F00F00F0100B9
:1019E40001A08327C4FED8438327C4FC1D8F83270B
:1019F40004FED8C38327C4FE0327C4FCD8C303252D
:101A040004FEC12CB797110803A7075D8327C4FE02
:101A1400DC431D8FB797110823A8E75CB79711081B
:101A240003A7075DB797110883A7475D637AF7009B
:101A3400B797110803A7075DB797110823AAE75CB6
:101A44008327C4FED843B797110883A7075E5D8F29
:101A54008327C4FED8C38327C4FE23A00700B797F7
:101A6400110883A7875D13871700B797110823AC64
:101A7400E75CEF10B041832744FE99E3EF80B07038
:101A8400832744FE9D8B95C3B787110883C747E21C
:101A9400A30EF4FCB70702000347D4FDA385E700B7
:101AA40001000F00F00F010001A0832744FE3E85D2
:101AB400F250625421618280797106D622D40018D2
:101AC400232EA4FC8327C4FD2326F4FE8327C4FD10
:101AD400FDC3A147B307F0400327C4FEBA972326EA
:101AE400F4FE8327C4FE2324F4FE832784FED84314
:101AF400B797110883A7075EF98F95E3B787110895
:101B040083C747E2A303F4FEB7070200034774FE4A
:101B1400A385E70001000F00F00F010001A0832757
:101B240084FE9C4395C3B787110883C747E2230308
:101B3400F4FEB7070200034764FEA385E700010033
:101B44000F00F00F010001A0832784FED843B7974C
:101B5400110883A7075EF98FB9CF832784FE9C43BE
:101B6400B9EB832784FED843B797110883A7075E90
:101B740093C7F7FF7D8F832784FED8C3EF10F02E21
:101B8400832784FED843B797110883A7075D3E9740
:101B9400B797110823A8E75C032584FE1D2AB7978D
:101BA400110883A7C75D13871700B797110823AEE1
:101BB400E75CEF10B02D0100B250225445618280E1
:101BC400011122CE0010A167938707802324F4FE1D
:101BD400B7971108938747752326F4FE8327C4FE1D
:101BE4009D8B9DC78327C4FE9D072326F4FE832770
:101BF400C4FEE19B2326F4FE032784FE8327C4FE50
:101C04001D8FB797110893874775BA972324F4FE5D
:101C14008327C4FE2322F4FEB79711089387475CF9
:101C2400032744FE98C3B79711089387475C23A200
:101C34000700832744FE032784FEBA972326F4FE75
:101C4400A1470327C4FEB307F7402326F4FE8327E6
:101C5400C4FEE19B2326F4FE0327C4FEB7971108B4
:101C640023A6E75CB797110883A7C75C23A20700E4
:101C7400B797110883A7C75C23A00700832744FEF6
:101C84002320F4FE832704FE0327C4FE1D8F83272D
:101C940004FED8C3B797110803A7C75C832704FEC3
:101CA40098C3832704FED843B797110823AAE75C97
:101CB400832704FED843B797110823A8E75CB79796
:101CC40011083707008023A0E75E01007244056114
:101CD4008280797122D60018232EA4FCB7971108AC
:101CE4009387475C2326F4FE31A08327C4FE9C43DC
:101CF4002326F4FE8327C4FE9C430327C4FDE3E6A6
:101D0400E7FE8327C4FE2324F4FE8327C4FEDC43BA
:101D1400032784FEBA970327C4FD6310F7028327C1
:101D2400C4FED8438327C4FDDC433E978327C4FE07
:101D3400D8C38327C4FE232EF4FC8327C4FD2324A5
:101D4400F4FE8327C4FDDC43032784FE3E978327E8
:101D5400C4FE9C436316F7048327C4FE9843B797D5
:101D6400110883A7C75C6305F7028327C4FDD84322
:101D74008327C4FE9C43DC433E978327C4FDD8C31A
:101D84008327C4FE9C4398438327C4FD98C339A882
:101D9400B797110803A7C75C8327C4FD98C339A06C
:101DA4008327C4FE98438327C4FD98C30327C4FE36
:101DB4008327C4FD6307F7008327C4FE0327C4FDFC
:101DC40098C301003254456182805D7186C6A2C405
:101DD4008008232EA4FA232CB4FA8327C4FB2326D9
:101DE400F4FE8327C4FE95E3B787110883C747E24F
:101DF400A305F4FEB70702000347B4FEA385E7007A
:101E040001000F00F00F010001A0EFE09FEE832717
:101E1400C4FE98438327C4FEF4438327C4FEBC470F
:101E2400B387F6023E978327C4FE98C78327C4FE70
:101E340023A007048327C4FE98438327C4FED8C382
:101E44008327C4FE98438327C4FEFC439386F7FF8D
:101E54008327C4FEBC47B387F6023E978327C4FE9C
:101E6400D8C78327C4FE7D572386E7048327C4FE8F
:101E74007D57A386E704832784FBC1EF8327C4FE31
:101E84009C4BCDC78327C4FEC1073E85EF10506D20
:101E9400AA87C9CFF32740F12322F4FE832744FE07
:101EA40093F7F70F2320F4FE832704FE232EF4FC7C
:101EB4008327C4FD232CF4FC832784FD85E33707A3
:101EC40003008567BA9783A7C7FFB706030013E724
:101ED40017008567B69723AEE7FE3DA0832784FDF0
:101EE40013972700B7170300BA97232AF4FC832714
:101EF40044FD2328F4FC85472326F4FC8327C4FCF3
:101F0400032704FD1CC30100010001000F00F00FB2
:101F140031A88327C4FEC1073E85EFE0AFD78327EE
:101F2400C4FE938787023E85EFE0CFD6EFE01FE53E
:101F340085473E85B640264461618280797106D624
:101F440022D40018232EA4FC232CB4FCB287A30BA8
:101F5400F4FC8327C4FD95E3B787110883C747E2E0
:101F6400A301F4FEB7070200034734FEA385E7008C
:101F740001000F00F00F010001A00327C4FD832717
:101F840084FDB307F7022326F4FE8327C4FE938758
:101F940007053E85ED382324A4FE832784FE9DC7D0
:101FA400832784FE2322F4FE832744FE93870705B8
:101FB4002322F4FE834774FD032784FEBE86032692
:101FC40044FE832584FD0325C4FD0128832784FE64
:101FD4003E85B250225445618280797106D622D45E
:101FE40000182326A4FE2324B4FE2322C4FEB687AD
:101FF400232EE4FCA301F4FE832784FE99E78327C0
:10200400C4FD0327C4FD98C331A08327C4FD03275F
:1020140044FE98C38327C4FD0327C4FEF8C3832763
:10202400C4FD032784FEB8C785450325C4FD713B61
:102034000100B250225445618280011106CE22CCA7
:1020440000102326A4FE8327C4FE85C78327C4FE6D
:1020540023A407008327C4FE23A007008327C4FE0C
:1020640023A6070001470146814681450325C4FE96
:10207400B1200100F240624405618280797106D684
:1020840022D40018AA87A30FF4FC85472326F4FE64
:10209400232404FE8347F4FD3E86832584FE032522
:1020A400C4FE693D2322A4FE032544FE7937832719
:1020B40044FE3E85B250225445618280717106D738
:1020C40022D500192326A4F62324B4F62320C4F62B
:1020D4002322D4F6232EE4F4232604FE8327C4F615
:1020E4002324F4FE832784FE95E3B787110883C76E
:1020F40047E2A301F4FEB7070200034734FEA385B9
:10210400E70001000F00F00F010001A0832784F60F
:1021140089E7832784FEBC4799E3854711A081475B
:1021240095E3B787110883C747E22301F4FEB70795
:102134000200034724FEA385E70001000F00F00F0F
:10214400010001A00327C4F589476318F70083271A
:1021540084FEF84385476314F700854711A081473F
:1021640095E3B787110883C747E2A300F4FEB707D6
:102174000200034714FEA385E70001000F00F00FDF
:10218400010001A0EF20A004AA8781EB032604F636
:10219400832644F6B287D58F99E3854711A08147FA
:1021A40095E3B787110883C747E22300F4FEB70716
:1021B4000200034704FEA385E70001000F00F00FAF
:1021C400010001A0EFE0FFB2832784FEB843832718
:1021D40084FEFC436367F7000327C4F58947631E45
:1021E400F7120326C4F5832584F6032584FEEF0045
:1021F400D02D2322A4FE832784FE9C57D1CB832792
:1022040084FE938787023E85EF109035AA87638208
:102214000710F32740F1232EF4FC8327C4FD93F722
:10222400F70F232CF4FC832784FD232AF4FC832753
:1022340044FD2328F4FC832704FD85E337070300CA
:102244008567BA9783A7C7FFB706030013E717008C
:102254008567B69723AEE7FE3DA0832704FD139759
:102264002700B7170300BA972326F4FC8327C4FC7E
:102274002324F4FC85472322F4FC832744FC03270E
:1022840084FC1CC30100010001000F00F00F51A0E9
:10229400832744FEBDCFF32740F12320F4FC83279A
:1022A40004FC93F7F70F232EF4FA8327C4FB232CA3
:1022B400F4FA832784FB232AF4FA832744FB85E377
:1022C400370703008567BA9783A7C7FFB7060300DC
:1022D40013E717008567B69723AEE7FE3DA0832773
:1022E40044FB13972700B7170300BA972328F4FA7F
:1022F400832704FB2326F4FA85472324F4FA83274F
:1023040084FA0327C4FA1CC30100010001000F0072
:10231400F00FEFE0BFA68547A1AA032604F68326A3
:1023240044F6B287D58F89E7EFE05FA5814789A29C
:102334008327C4FE89EB930784F73E85EF10D031E1
:1023440085472326F4FEEFE07FA3EF100032EFE091
:102354005F9A832784FE83C7C704E207E1877D571A
:102364006396E700832784FE23860704832784FE7D
:1023740083C7D704E207E1877D576396E700832785
:1023840084FEA3860704EFE07F9F130704F69307F8
:1023940084F7BA853E85EF10702FAA87F9E30325E9
:1023A40084FEEF00F03BAA87D5C7832784FE93867B
:1023B4000701032704F6832744F6BA853E8636854B
:1023C400EF10500B032584FEEF007029EF10002C52
:1023D400AA87E39907DEF32740F12322F4FA83273F
:1023E40044FA93F7F70F2320F4FA832704FA232EF1
:1023F400F4F88327C4F9232CF4F8832784F985E3BC
:10240400370703008567BA9783A7C7FFB70603009A
:1024140013E717008567B69723AEE7FE3DA0832731
:1024240084F913972700B7170300BA97232AF4F8FF
:10243400832744F92328F4F885472326F4F88327CF
:10244400C4F8032704F91CC30100010001000F00B4
:10245400F00F8DBB032584FEEF007020EF100023E6
:1024640095B3032584FEEF00901FEF1020228147CF
:102474003E85BA502A544D618280397106DE22DCD1
:1024840080002326A4FC2324B4FC2322C4FC2320A0
:10249400D4FC8327C4FC2324F4FE832784FE95E321
:1024A400B787110883C747E2A30DF4FCB7070200FE
:1024B4000347B4FDA385E70001000F00F00F0100FE
:1024C40001A0832784FC89E7832784FEBC4799E322
:1024D400854711A0814795E3B787110883C747E271
:1024E400230DF4FCB70702000347A4FDA385E7000E
:1024F40001000F00F00F010001A0032704FC89472D
:102504006318F700832784FEF84385476314F700B4
:10251400854711A0814795E3B787110883C747E230
:10252400A30CF4FCB7070200034794FDA385E7005E
:1025340001000F00F00F010001A0EFF02FA2B70778
:10254400020083C7B70093F7F70F230CF4FCB78797
:10255400110883C747E2A30BF4FCB7070200034743
:1025640074FDA385E70001000F00F00F834784FD8D
:102574002322F4FE832784FEB843832784FEFC438E
:102584006367F700032704FC89476310F708832770
:1025940084FE83C7D704A301F4FE832784FEBC43CF
:1025A400232EF4FC032604FC832584FC032584FEEB
:1025B400EF00A071834734FEE207E1877D576397FC
:1025C400E702832784FE9C578DCF832784FE93875D
:1025D40087023E85EF10C078AA8785C7832744FC0D
:1025E4008DC3832744FC054798C321A8834734FE41
:1025F400850793F7F70FE207E187032784FEA30615
:10260400F70485472326F4FE19A0232604FE832716
:1026140044FE93F7F70F230BF4FC834764FDA30AEE
:10262400F4FCB7070200034754FDA385E70001004B
:102634000F00F00F01008327C4FE3E85F250625460
:1026440021618280197186DEA2DC00012326A4F8B0
:102654002324B4F82320C4F82322D4F8232604FE28
:102664008327C4F82324F4FE832784FE95E3B787E5
:10267400110883C747E2A301F4FEB707020003472A
:1026840034FEA385E70001000F00F00F010001A054
:10269400832784F889E7832784FEBC4799E3854729
:1026A40011A0814795E3B787110883C747E2230147
:1026B400F4FEB7070200034724FEA385E7000100E8
:1026C4000F00F00F010001A0EF107030AA8781EB1A
:1026D400032604F8832644F8B287D58F99E3854707
:1026E40011A0814795E3B787110883C747E2A30088
:1026F400F4FEB7070200034714FEA385E7000100B8
:102704000F00F00F010001A0EFE0AFDE832784FE8D
:10271400BC432322F4FE832744FEDDCB832584F8C7
:10272400032584FEC12D832744FE1387F7FF8327E7
:1027340084FEB8C3832784FE9C4BD9C7832784FEB9
:10274400C1073E85EF10C061AA87BDCFF32740F1D2
:10275400232EF4FC8327C4FD93F7F70F232CF4FCFA
:10276400832784FD232AF4FC832744FD2328F4FCD7
:10277400832704FD85E3370703008567BA9783A79A
:10278400C7FFB706030013E717008567B69723AEA4
:10279400E7FE3DA0832704FD13972700B717030026
:1027A400BA972326F4FC8327C4FC2324F4FC85472E
:1027B4002322F4FC832744FC032784FC1CC301006C
:1027C400010001000F00F00FEFE04FDB8547B9AACD
:1027D400032604F8832644F8B287D58F89E7EFE00F
:1027E400EFD98147A1A28327C4FE89EB930784F91B
:1027F4003E85EF10606685472326F4FEEFE00FD890
:10280400EF00B066EFE0EFCE832784FE83C7C704F2
:10281400E207E1877D576396E700832784FE2386DA
:102824000704832784FE83C7D704E207E1877D5723
:102834006396E700832784FEA3860704EFE00FD4A2
:10284400130704F8930784F9BA853E85EF100064F2
:10285400AA87E9E3032584FEEF00206DAA87CDC78C
:10286400832784FE93868702032704F8832744F88A
:10287400BA853E863685EF10E03F032584FEC523E6
:10288400EF00D060AA87E39107E8F32740F1232003
:10289400F4FC832704FC93F7F70F232EF4FA832721
:1028A400C4FB232CF4FA832784FB232AF4FA83271A
:1028B40044FB85E3370703008567BA9783A7C7FFFF
:1028C400B706030013E717008567B69723AEE7FE44
:1028D4003DA0832744FB13972700B7170300BA973B
:1028E4002328F4FA832704FB2326F4FA85472324B8
:1028F400F4FA832784FA0327C4FA1CC301000100F5
:1029040001000F00F00F09B5032584FE892BEF00A9
:10291400F057DDBB032584FE9923EF0030570325D0
:1029240084FE2125AA87E38107DE81473E85F65090
:10293400665409618280757106C722C50009232E79
:10294400A4F62328B4F6232AC4F6232604FE8327F8
:10295400C4F72322F4FE232404FE832744FE95E3D4
:10296400B787110883C747E2A30DF4FCB707020039
:102974000347B4FDA385E70001000F00F00F010039
:1029840001A0832744FEBC4795C3B787110883C7BA
:1029940047E2230DF4FCB70702000347A4FDA38517
:1029A400E70001000F00F00F010001A0EF1030025A
:1029B400AA8781EB032604F7832644F7B287D58FD1
:1029C40099E3854711A0814795E3B787110883C729
:1029D40047E2A30CF4FCB7070200034794FDA38568
:1029E400E70001000F00F00F010001A0EFE06FB05D
:1029F400832744FEBC432320F4FE832704FEE1C363
:102A0400832704FE1387F7FF832744FEB8C3832775
:102A140044FE9C4399E7EF1010412A87832744FE24
:102A240098C7832744FE9C4BD9C7832744FEC1071C
:102A34003E85EF10E032AA87BDCFF32740F1232A69
:102A4400F4FC832744FD93F7F70F2328F4FC832732
:102A540004FD2326F4FC8327C4FC2324F4FC8327ED
:102A640084FC85E3370703008567BA9783A7C7FF0C
:102A7400B706030013E717008567B69723AEE7FE92
:102A84003DA0832784FC13972700B7170300BA9748
:102A94002322F4FC832744FC2320F4FC8547232EC3
:102AA400F4FA8327C4FB032704FC1CC301000100C0
:102AB40001000F00F00FEFE06FAC8547F9A2032689
:102AC40004F7832644F7B287D58F8DEB832784FEE2
:102AD40095C3B787110883C747E2A30DF4FAB70774
:102AE40002000347B4FBA385E70001000F00F00FC9
:102AF400010001A0EFE08FA8814741AA8327C4FE0B
:102B040089EB930784F83E85EF100035854723262B
:102B1400F4FEEFE0AFA6EF005035EFE08F9D832782
:102B240044FE83C7C704E207E1877D576396E70045
:102B3400832744FE23860704832744FE83C7D704E0
:102B4400E207E1877D576396E700832744FEA38667
:102B54000704EFE0AFA2130704F7930784F8BA85DC
:102B64003E85EF10A032AA876391070E032544FE29
:102B74006D2EAA87E9C7832744FE9C4389EFEFE0C3
:102B84004F97832744FE9C473E85EF10E06723243C
:102B9400A4FEEFE0AF9E832744FE938687020327BB
:102BA40004F7832744F7BA853E863685EF10800CF8
:102BB400032544FE6D24EF00702DAA87E39807E2F5
:102BC400F32740F1232AF4FA832744FB93F7F70F02
:102BD4002328F4FA832704FB2326F4FA8327C4FA70
:102BE4002324F4FA832784FA85E3370703008567EF
:102BF400BA9783A7C7FFB706030013E717008567D3
:102C0400B69723AEE7FE3DA0832784FA13972700E7
:102C1400B7170300BA972322F4FA832744FA232030
:102C2400F4FA8547232EF4F88327C4F9032704FA1A
:102C34001CC30100010001000F00F00F45BB032578
:102C440044FE312CEF00902455B3032544FE012C9F
:102C5400EF00D023032544FEC92CAA87E38807D8B4
:102C6400832784FE95C3EFE0CF88032544FE1D200F
:102C7400232EA4FC832744FE9C478325C4FD3E8564
:102C8400EF105001EFE08F8F81473E85BA402A4410
:102C940049618280797122D60018232EA4FC8327EF
:102CA400C4FD9C5799CB8327C4FD9C5F9843DC43A8
:102CB400A147998F2326F4FE19A0232604FE832717
:102CC400C4FE3E85325445618280797106D622D491
:102CD4000018232EA4FC232CB4FC232AC4FC232692
:102CE40004FE8327C4FDBC432324F4FE8327C4FDD0
:102CF400BC4795E38327C4FD9C43F9EF8327C4FDB8
:102D04009C473E85EF1060642326A4FE8327C4FD00
:102D140023A40700D1A0832744FDB1E78327C4FD82
:102D2400D8438327C4FDBC473E86832584FD3A856A
:102D3400EF3091078327C4FDD8438327C4FDBC47E4
:102D44003E978327C4FDD8C38327C4FDD843832774
:102D5400C4FD9C476362F7088327C4FD9843832717
:102D6400C4FDD8C395A88327C4FDD8478327C4FDD1
:102D7400BC473E86832584FD3A85EF30F1028327E4
:102D8400C4FDD8478327C4FDBC47B307F0403E9732
:102D94008327C4FDD8C78327C4FDD8478327C4FD30
:102DA4009C43637EF7008327C4FD98478327C4FDB3
:102DB400BC47B307F0403E978327C4FDD8C7032719
:102DC40044FD8947631AF700832784FE91C783274C
:102DD40084FEFD172324F4FE832784FE1387170043
:102DE4008327C4FDB8C38327C4FE3E85B250225452
:102DF40045618280011106CE22CC00102326A4FE58
:102E04002324B4FE8327C4FEBC47A9C78327C4FE7A
:102E1400D8478327C4FEBC473E978327C4FED8C740
:102E24008327C4FED8478327C4FE9C476368F70002
:102E34008327C4FE98438327C4FED8C78327C4FED0
:102E4400D8478327C4FEBC473E86BA85032584FE43
:102E5400EF3081750100F24062440561828079712E
:102E640006D622D40018232EA4FCEFD09FE8832793
:102E7400C4FD83C7D704A307F4FE3DA08327C4FD84
:102E84009C5795CB8327C4FD938787023E85EF002B
:102E9400306DAA8799C3EF10E0178347F4FEFD173E
:102EA40093F7F70FA307F4FE8347F4FEE207E187E5
:102EB400E346F0FC11A001008327C4FD7D57A386DF
:102EC400E704EFD0BFEBEFD0DFE28327C4FD83C775
:102ED400C7042307F4FE35A08327C4FD9C4B8DCB88
:102EE4008327C4FDC1073E85EF009067AA8799C375
:102EF400EF1040128347E4FEFD1793F7F70F230703
:102F0400F4FE8347E4FEE207E187E347F0FC11A007
:102F140001008327C4FD7D572386E704EFD01FE615
:102F24000100B250225445618280797106D622D4C0
:102F34000018232EA4FCEFD0DFDB8327C4FDBC43A1
:102F440089E785472326F4FE19A0232604FEEFD043
:102F5400FFE28327C4FE3E85B2502254456182803D
:102F6400797106D622D40018232EA4FCEFD07FD882
:102F74008327C4FDB8438327C4FDFC436316F700CD
:102F840085472326F4FE19A0232604FEEFD01FDF75
:102F94008327C4FE3E85B2502254456182807971F4
:102FA40022D60018232EA4FC232CB4FC232604FED2
:102FB400B9A0B7171208138747F58327C4FE8E07F5
:102FC400BA979C4385EBB7171208138747F58327F5
:102FD400C4FE8E07BA97032784FD98C3B717120857
:102FE400138747F58327C4FE8E07BA970327C4FDCA
:102FF400D8C321A88327C4FE85072326F4FE03270C
:10300400C4FEA547E3F7E7FA010001003254456125
:103014008280797106D622D40018232EA4FC23289A
:10302400B4FC232AC4FC232CD4FC8327C4FD23260C
:10303400F4FEEFD01FCC8327C4FE83C7C704E20786
:10304400E1877D576396E7008327C4FE2386070440
:103054008327C4FE83C7D704E207E1877D576396BD
:10306400E7008327C4FEA3860704EFD03FD183275C
:10307400C4FEBC4391EF8327C4FE93878702832653
:1030840084FD832504FD032644FD3E85EF00304581
:103094000325C4FEE9330100B25022544561828005
:1030A400397106DE22DC8000232EA4FC232CB4FC20
:1030B4002328D4FC2326E4FC2324F4FCB287231B1A
:1030C400F4FC835764FD8A073E85EFE04FFC23221E
:1030D400A4FE832744FE8DC713058007EFE02FFB72
:1030E4002326A4FE8327C4FE99C78327C4FE03278F
:1030F40044FED8DF01A8032544FEEFE0FF9B19A09E
:10310400232604FE8327C4FE85CB035664FD814831
:103114000328C4FE832784FC0327C4FC832604FD00
:10312400832584FD0325C4FD15200325C4FE29241D
:1031340085472324F4FE21A0FD572324F4FE83278E
:1031440084FE3E85F250625421618280397106DE2C
:1031540022DC4ADA4ED88000232EA4FC232CB4FCB3
:10316400232AC4FC2328D4FC2326E4FC2324F4FCD3
:10317400232204FD232014FD832744FCD85F8327E6
:1031840044FD8A073E869305500A3A85EF30814F05
:10319400832744FCD85F832644FDB7070040FD170E
:1031A400B6978A07BA972324F4FE832784FEE19B0B
:1031B4002324F4FE832784FE9D8B95C3B7871108CF
:1031C40083C747E2A303F4FEB7070200034774FE74
:1031D400A385E70001000F00F00F010001A0832781
:1031E40084FDB9CB232604FE25A8032784FD832769
:1031F400C4FEBA9703C70700832644FC8327C4FE92
:10320400B6972380E704032784FD8327C4FEBA9777
:1032140083C7070081CF8327C4FE85072326F4FED6
:103224000327C4FEBD47E3F2E7FC11A00100832796
:1032340044FCA387070429A0832744FC23800704B4
:103244000327C4FC9D4763F5E7009D472326F4FC50
:10325400832744FC0327C4FC98DF832744FC03270B
:10326400C4FCB8CB832744FC23AA0704832744FC6B
:10327400A1073E85EFD00FA7832744FC938707025D
:103284003E85EFD02FA6832744FC032744FC98CF28
:103294008327C4FC3E89814921478147330627415E
:1032A400B285B335B700B3863741B387B640BE861F
:1032B4003287B687832644FC98D2DCD2832744FC29
:1032C400032744FC98DB232604FE39A8032744FC87
:1032D4008327C4FED1078A07BA9723A4070083274C
:1032E400C4FE85072326F4FE0327C4FE9147E3FFAB
:1032F400E7FC832744FC23A60706832744FC238892
:103304000706032604FD8325C4FD032584FEEFD0B0
:103314000FF52A87832744FC98C3832784FC91C72D
:10332400832784FC032744FC98C30100F2506254B1
:103334005259C25921618280397106DE22DC800033
:103344002326A4FCEFD0FF9AB797110883A7475F01
:1033540013871700B797110823AAE75EB7971108D8
:1033640083A7475E8DE3B79711080327C4FC23A204
:10337400E75EB797110803A7475F8547631AF7020B
:10338400EF00104C35A0B797110883A747608DE371
:10339400B797110883A7475E985F8327C4FC9C5F97
:1033A40063E8E700B79711080327C4FC23A2E75E8C
:1033B400B797110883A7876113871700B797110878
:1033C40023ACE7608327C4FC985FB797110883A7F1
:1033D400076063F9E7008327C4FC985FB797110877
:1033E40023A0E7608327C4FC985FE1473307F70213
:1033F400B7171208938787FA3E978327C4FCA1075F
:10340400BE853A85EFD0AF8FEFD05F97B79711089D
:1034140083A74760C9CBB797110883A7475E985F16
:103424008327C4FC9C5F6370F708F32740F12326CD
:10343400F4FE8327C4FE93F7F70F2324F4FE8327B7
:1034440084FE2322F4FE832744FE2320F4FE8327F4
:1034540004FE85E3370703008567BA9783A7C7FF90
:10346400B706030013E717008567B69723AEE7FE98
:103474003DA0832704FE13972700B7170300BA97CC
:10348400232EF4FC8327C4FD232CF4FC8547232A34
:10349400F4FC832744FD032784FD1CC301000100C1
:1034A40001000F00F00F0100F2506254216182808C
:1034B4005D7186C6A2C48008232CA4FA232EB4FA14
:1034C400232604FE832784FB0327C4FBD98FB1C3BF
:1034D400B797110883A7C76295C3B787110883C735
:1034E40047E2A305F4FEB70702000347B4FEA38531
:1034F400E70001000F00F00F010001A0BD2201460A
:10350400032584FB8325C4FBEF1020654122232679
:10351400A4FE8327C4FEBDEFF32740F12322F4FE6B
:10352400832744FE93F7F70F2320F4FE832704FE3A
:10353400232EF4FC8327C4FD232CF4FC832784FD71
:1035440085E3370703008567BA9783A7C7FFB706E4
:10355400030013E717008567B69723AEE7FE3DA087
:10356400832784FD13972700B7170300BA97232AEC
:10357400F4FC832744FD2328F4FC85472326F4FC2C
:103584008327C4FC032704FD1CC3010001000100C0
:103594000F00F00F0100B6402644616182800111E2
:1035A40006CE22CC0010B797110893878762014793
:1035B400814613060010938541A037450008130582
:1035C400C5E6F93C2326A4FE0327C4FE85476316FB
:1035D400F700EF10806D2326A4FE0327C4FE854761
:1035E400631AF704B787110883C747E2A305F4FEFB
:1035F400B70702000347B4FEA385E70001000F00EC
:10360400F00F0100B79611087D57FD5723A0E6621D
:1036140023A2F662B7971108054723A2E760B7977C
:1036240011088146014723ACD75E23AEE75EEFD095
:10363400CFE63DA00327C4FEFD576313F702B78707
:10364400110883C747E22305F4FEB70702000347C6
:10365400A4FEA385E70001000F00F00F010001A004
:103664000100F240624405618280411122C60008D3
:10367400B797110883A7C76213871700B797110874
:1036840023A6E7620100324441018280397106DEDB
:1036940022DC8000232604FE232404FEB7971108AD
:1036A40083A7C76295E3B787110883C747E2A30FCF
:1036B400F4FCB70702000347F4FDA385E70001000B
:1036C4000F00F00F010001A0EFD0AFE2B79711088F
:1036D40083A7C7621387F7FFB797110823A6E7628A
:1036E400B797110883A7C762639A071AB797110897
:1036F40083A7475F6384071A79A0B71712089387D3
:1037040087099C4B9C4B2326F4FE8327C4FE938796
:1037140007023E85EFC0BFF18327C4FEA1073E85A3
:10372400EFC0FFF08327C4FE985FB797110883A703
:10373400076063F9E7008327C4FE985FB797110811
:1037440023A0E7608327C4FE985FE1473307F702AD
:10375400B7171208938787FA3E978327C4FEA107F9
:10376400BE853A85EFC0BFD98327C4FE985FB7975B
:10377400110883A7475E9C5F6367F700B79711083A
:10378400054723A8E760B7171208938787099C4366
:10379400ADF78327C4FE99C3EF00701EB7971108D5
:1037A40003A7876083A7C7602320E4FE2322F4FED7
:1037B400832704FE032744FED98FB9CB2D22AA8781
:1037C40091C7B7971108054723A8E760032604FEAD
:1037D400832644FE7D55FD553307A6003A883338C9
:1037E400C800B387B600B306F800B6872320E4FE0A
:1037F4002322F4FE832704FE032744FED98FDDFF32
:10380400B79711088146014723A4D76023A6E76030
:10381400B797110883A70761D1C385472324F4FE12
:10382400F32740F1232CF4FC832784FD93F7F70F4F
:10383400232AF4FC832744FD2328F4FC832704FD76
:103844002326F4FC8327C4FC85E33707030085673C
:10385400BA9783A7C7FFB706030013E71700856766
:10386400B69723AEE7FE3DA08327C4FC1397270039
:10387400B7170300BA972324F4FC832784FC23227C
:10388400F4FC85472320F4FC832704FC032744FC31
:103894001CC30100010001000F00F00FEFD00FCE98
:1038A400832784FE3E85F250625421618280011197
:1038B40006CE22CC0010EFD0CFC3B797110803A7D0
:1038C400875F83A7C75F2324E4FE2326F4FEEFD09B
:1038D400EFCA032784FE8327C4FE3A85BE85F240DF
:1038E400624405618280397106DE22DC8000232671
:1038F40004FEB797110883A7C762639E0720B79792
:10390400110803A6875F83A6C75F05458145330772
:10391400A6003A883338C800B387B600B306F80067
:10392400B6872320E4FE2322F4FEB796110803276A
:1039340004FE832744FE23ACE65E23AEF65E8327B3
:1039440004FE032744FED98FA5EBB797110883A77C
:10395400875E9C4395C3B787110883C747E2A307D3
:10396400F4FCB70702000347F4FCA385E700010059
:103974000F00F00F010001A0B797110883A7875E1D
:10398400232EF4FCB797110803A7C75EB797110855
:1039940023A4E75EB79711080327C4FD23A6E75EB7
:1039A400B797110883A7476113871700B7971108C2
:1039B40023AAE760EF00A07CB797110803A707626A
:1039C40083A74762832644FE3E8663E9C6108326A6
:1039D40044FE3E866397C600832604FEBA8763EFDF
:1039E400F60EB797110883A7875E9C4391EBB796B1
:1039F40011087D57FD5723A0E66223A2F662F9A8B9
:103A0400B797110883A7875E9C4B9C4B232CF4FC2F
:103A1400832784FD9847DC472328E4FC232AF4FC0D
:103A2400032744FD832744FE63EEE700032744FD98
:103A3400832744FE6313F702032704FD832704FE50
:103A440063FDE700B7961108032704FD832744FDAF
:103A540023A0E66223A2F66251A0832784FDA10776
:103A64003E85EFC0DFBC832784FDDC5B81CB8327ED
:103A740084FD938707023E85EFC07FBB832784FDC7
:103A8400985FB797110883A7076063F9E700832756
:103A940084FD985FB797110823A0E760832784FD0E
:103AA400985FE1473307F702B7171208938787FA3D
:103AB4003E97832784FDA107BE853A85EFC03FA4C6
:103AC400832784FD985FB797110883A7475E9C5F9F
:103AD400E369F7F085472326F4FE21B7B797110869
:103AE40083A7475E945FB7171208138787FAE147E5
:103AF400B387F602BA979843854763F5E70085478D
:103B04002326F4FEB797110883A707619DCF854745
:103B14002326F4FE1DA8B797110803A7876083A77F
:103B2400C760054581453306A70032883338E8006D
:103B3400B386B700B307D800BE863287B687B79678
:103B4400110823A4E66023A6F6608327C4FE3E85FD
:103B5400F250625421618280011106CE22CC001001
:103B6400B797110883A7C76299C7B7971108054784
:103B740023A8E760DDA8B797110823A80760B797C3
:103B8400110883A7475E9843B797110883A7475E38
:103B9400DC5F63E0E702B797110803A7475EB797B6
:103BA400110883A7475E93870704BE853A85EF60B3
:103BB400B05EB797110883A707602326F4FE15A803
:103BC4008327C4FE95E3B787110883C747E2A3039D
:103BD400F4FEB7070200034774FEA385E700010063
:103BE4000F00F00F010001A08327C4FEFD17232658
:103BF400F4FEB7171208138787FA8326C4FEE14739
:103C0400B387F602BA979C43C5DF0327C4FEE14796
:103C14003307F702B7171208938787FABA97232452
:103C2400F4FE832784FEDC439847832784FED8C3AD
:103C3400832784FED843832784FEA1076319F700F2
:103C4400832784FEDC439847832784FED8C38327D5
:103C540084FEDC43984BB797110823A2E75EB7971D
:103C640011080327C4FE23A0E7600100F240624468
:103C740005618280797106D622D40018232EA4FC13
:103C84002328B4FC232AC4FC8327C4FD95E3B78707
:103C9400110883C747E2A307F4FEB70702000347EE
:103CA400F4FEA385E70001000F00F00F010001A05E
:103CB400B797110883A7475E93870702BE8503253C
:103CC400C4FDEFC03F8A0546032504FD832544FD5A
:103CD400EF00B0680100B2502254456182807971CE
:103CE40006D622D40018232EA4FC2328B4FC232AAD
:103CF400C4FC232CD4FC8327C4FD95E3B7871108A7
:103D040083C747E2A307F4FEB70702000347F4FEA4
:103D1400A385E70001000F00F00F010001A0B79791
:103D2400110883A7475E93870702BE850325C4FD58
:103D3400EFC0EFFC832784FD99C77D57FD572328E7
:103D4400E4FC232AF4FC032684FD032504FD8325D7
:103D540044FDEF0090600100B2502254456182801E
:103D6400797106D622D40018232EA4FC8327C4FD1F
:103D74009C4B9C4B2324F4FE832784FE95E3B78756
:103D8400110883C747E2A303F4FEB7070200034701
:103D940074FEA385E70001000F00F00F010001A0ED
:103DA400832784FE938707023E85EFC05F88B79719
:103DB400110883A7C762B1EB832784FEA1073E8560
:103DC400EFC0FF86832784FE985FB797110883A707
:103DD400076063F9E700832784FE985FB7971108AB
:103DE40023A0E760832784FE985FE1473307F70247
:103DF400B7171208938787FA3E97832784FEA10793
:103E0400BE853A85EFC0AFEF21A8832784FE938750
:103E14000702BE85B717120813858709EFC02FEE76
:103E2400832784FE985FB797110883A7475E9C5F3A
:103E340063FBE70085472326F4FEB797110805477F
:103E440023A8E76019A0232604FE8327C4FE3E8529
:103E5400B250225445618280011122CE00102326E3
:103E6400A4FEB797110803A747618327C4FE98C32C
:103E7400B797110803A7875F83A7C75F8326C4FE8C
:103E840098C6DCC60100724405618280397106DE81
:103E940022DC80002326A4FC2324B4FC8327C4FC56
:103EA40095E3B787110883C747E2A30BF4FCB70770
:103EB4000200034774FDA385E70001000F00F00F23
:103EC400010001A0832784FC95E3B787110883C709
:103ED40047E2230BF4FCB7070200034764FDA38504
:103EE400E70001000F00F00F010001A0EFC07FE028
:103EF400B797110803A7875F83A7C75F2320E4FE52
:103F04002322F4FE8327C4FC8847CC47032604FEFF
:103F1400832644FE3307A6403A8833380601B38724
:103F2400B640B3860741B687232CE4FC232EF4FC69
:103F3400832784FC9843DC433A86FD566319D600F4
:103F44003E87FD576315F700232604FE5DA88327EB
:103F5400C4FC9843B797110883A747616309F70224
:103F64008327C4FC9847DC47832644FE3E8663E0EF
:103F7400C602832644FE3E866397C600832604FE5B
:103F8400BA8763E6F60085472326F4FE9DA88327B7
:103F940084FC9843DC438326C4FD3E8663ECC60060
:103FA4008326C4FD3E866395C604832684FDBA87B2
:103FB40063F0F604832784FC9843DC43032584FDE3
:103FC4008325C4FD3306A740328833380701B386FE
:103FD400B740B3870641BE863287B687832684FC02
:103FE40098C2DCC20325C4FC853D232604FE11A827
:103FF400832784FC8146014794C3D8C3854723267D
:10400400F4FEEFC0BFD78327C4FE3E85F25062544E
:1040140021618280411122C60008B7971108054723
:1040240023A8E7600100324441018280011106CED9
:1040340022CC00102326A4FE6D20EF609017EDBF64
:10404400011106CE22CC0010232604FE1DA0032756
:10405400C4FEE1473307F702B7171208938787FABC
:10406400BA973E85EFC00FC38327C4FE8507232676
:10407400F4FE0327C4FE9D47E3FBE7FCB7171208D1
:1040840013858706EFC00FC1B717120813850708F9
:10409400EFC04FC0B717120813858709EFC08FBF51
:1040A400B71712081385070BEFC0CFBEB717120856
:1040B4001385870CEFC00FBEB79711083717120886
:1040C4001307870623A4E75EB7971108371712086A
:1040D4001307070823A6E75E0100F2406244056166
:1040E4008280011106CE22CC001091A8EFC07FC0BF
:1040F400B71712089387070B9C4B9C4B2326F4FE9F
:104104008327C4FEA1073E85EFC06FD2B79711087D
:1041140083A7475F1387F7FFB797110823AAE75EC2
:10412400B797110883A7075F1387F7FFB79711089D
:1041340023A8E75EEFC09FC40325C4FE2128B797D8
:10414400110883A7075FDDF301000100F240624418
:1041540005618280011106CE22CC00102326A4FE24
:104164008327C4FEDC5F3E85EFD01F950325C4FE84
:10417400EFD09F940100F2406244056182800111F6
:1041840022CE0010B797110883A7875E9C4391EB5A
:10419400B79611087D57FD5723A0E66223A2F66265
:1041A4001DA0B797110883A7875E9C4B9C4B2326C1
:1041B400F4FE8327C4FE9847DC47B796110823A072
:1041C400E66223A2F6620100724405618280011155
:1041D40022CE0010B797110883A7476089E7854767
:1041E4002326F4FE21A8B797110883A7C76289E79D
:1041F40089472326F4FE19A0232604FE8327C4FE40
:104204003E85724405618280797106D622D40018F5
:10421400232EA4FC8326C4FD2324D4FE232604FEDB
:104224008326C4FD638C0610832684FE905EB796B5
:10423400110883A6465E945E6375D60E832684FEBB
:104244009052D452B70500803377B60093F7060036
:10425400BA86DD8E95EAB797110883A7475E9C5FFF
:104264003E8881482147814733060741B285B335EB
:10427400B700B3861741B387B640BE863287B68788
:10428400832684FE98D2DCD2832784FED84F8327EA
:1042940084FE945FE147B386F602B717120893874A
:1042A40087FAB6976313F706832784FEA1073E8532
:1042B400EFC0EFB7B797110883A7475E985F8327CE
:1042C40084FE98DF832784FE985FB797110883A73D
:1042D400076063F9E700832784FE985FB7971108A6
:1042E40023A0E760832784FE985FE1473307F70242
:1042F400B7171208938787FA3E97832784FEA1078E
:10430400BE853A85EFC0AF9F09A8B797110883A768
:10431400475E985F832784FE98DF85472326F4FE53
:1043240031A8832784FEB84BB797110883A7475E4B
:104334009C5F6375F70085472326F4FE8327C4FE3C
:104344003E85B250225445618280797106D622D4CA
:104354004AD24ED00018232EA4FC8327C4FD232464
:10436400F4FE232604FE8327C4FD638C0710B7974D
:10437400110883A7475E032784FE6303F702B78708
:10438400110883C747E2A303F4FEB70702000347FB
:1043940074FEA385E70001000F00F00F010001A0E7
:1043A400832784FEFC4B95E3B787110883C747E254
:1043B4002303F4FEB7070200034764FEA385E70066
:1043C40001000F00F00F010001A0832784FEFC4BC5
:1043D4001387F7FF832784FEF8CB832784FE985F37
:1043E400832784FEBC4B630EF708832784FEFC4BB3
:1043F400C9EB832784FEA1073E85EFC04FA3832723
:1044040084FEB84B832784FE98DF832784FE9C5F59
:104414003E8981492147814733062741B285B33517
:10442400B700B3863741B387B640BE863287B687B6
:10443400832684FE98D2DCD2832784FE985FB797C4
:10444400110883A7076063F9E700832784FE985F58
:10445400B797110823A0E760832784FE985FE1479C
:104464003307F702B7171208938787FA3E97832713
:1044740084FEA107BE853A85EFC06F888547232651
:10448400F4FE8327C4FE3E85B25022541259825949
:1044940045618280397106DE22DC80002326A4FC7B
:1044A4002324B4FC8326C4FC2324D4FE854623227F
:1044B400D4FE8326C4FC63830616832684FEF44A52
:1044C40095E2B787110883C747E2A30FF4FCB70747
:1044D40002000347F4FDA385E70001000F00F00F7D
:1044E400010001A0832684FEB44A032684FC63F7FA
:1044F400C600832684FC2326D4FE31A0832684FEB2
:10450400B44A2326D4FE832684FE945E0326C4FE86
:104514006306D610832684FEF44A032644FE631FF2
:10452400D60EB796110883A6465E032684FE63134F
:10453400D602B787110883C747E2230FF4FCB707F5
:1045440002000347E4FDA385E70001000F00F00F1C
:10455400010001A0832684FE945E2320D4FE8326DA
:1045640084FE0326C4FE90DE832684FE9052D45239
:10457400B70500803377B60093F70600BA86DD8E60
:104584009DE68327C4FE3E88814821478147330640
:104594000741B285B335B700B3861741B387B64038
:1045A400BE863287B687832684FE98D2DCD28327E0
:1045B40084FED84F832604FEE147B386F602B7177C
:1045C4001208938787FAB697631AF704832784FE41
:1045D400A1073E85EFC0AF85832784FE985FB79718
:1045E400110883A7076063F9E700832784FE985FB7
:1045F400B797110823A0E760832784FE985FE147FB
:104604003307F702B7171208938787FA3E97832771
:1046140084FEA107BE853A85EFB07FEE0100F2501B
:10462400625421618280411122C60008B7971108A3
:1046340083A7475E81CBB797110883A7475EF84BE2
:104644000507F8CBB797110883A7475E3E85324428
:1046540041018280397106DE22DC80002326A4FC1D
:104664002320B4FC2322C4FCEFC0AFE8B7971108A1
:1046740083A7475EFC57D5E3B797110883A7475E26
:1046840005472388E706832704FC032744FCD98FC6
:10469400C9C70546032504FC832544FC7D29F3276B
:1046A40040F12324F4FE832784FE93F7F70F23229B
:1046B400F4FE832744FE2320F4FE832704FE232EE6
:1046C400F4FC8327C4FD85E3370703008567BA97A5
:1046D40083A7C7FFB706030013E717008567B697DC
:1046E40023AEE7FE3DA08327C4FD13972700B71729
:1046F4000300BA97232CF4FC832784FD232AF4FCBB
:1047040085472328F4FC832704FD032744FD1CC3A9
:104714000100010001000F00F00FEFC02FE6EFC011
:104724004FDDB797110883A7475EFC572326F4FE95
:104734008327C4FE9DC38327C4FC81CBB79711088C
:1047440083A7475E23A6070609A8B797110883A77E
:10475400475E0327C4FE7D17F8D7B797110883A7D0
:10476400475E23880706EFC06FE18327C4FE3E85BA
:10477400F2506254216182805D7186C6A2C48008B1
:10478400232EA4FA232CB4FA232AC4FA2328D4FA15
:1047940085472326F4FE8327C4FB95E3B7871108D6
:1047A40083C747E22303F4FEB7070200034764FE0E
:1047B400A385E70001000F00F00F010001A083278B
:1047C400C4FB2324F4FEEFC0CFD2832704FB99C794
:1047D400832784FEF857832704FB98C3832784FE2A
:1047E40083C70707A303F4FE832784FE09472388AE
:1047F400E706032744FB914763E2E706832744FB6C
:10480400139727009387C1A0BA979C438287832775
:1048140084FEF857832784FB5D8F832784FEF8D7B3
:1048240085A8832784FEFC5713871700832784FEFB
:10483400F8D7B9A8832784FE032784FBF8D789A86F
:10484400034774FE89476308F700832784FE032720
:1048540084FBF8D735A8232604FE1DA8832784FEED
:10486400F857FD576305F702B787110883C747E276
:10487400A302F4FEB7070200034754FEA385E70032
:1048840001000F00F00F010001A0010011A00100C0
:10489400034774FE85476317F710832784FEA10737
:1048A4003E85EFB0DFD8832784FE985FB797110861
:1048B40083A7076063F9E700832784FE985FB797AF
:1048C400110823A0E760832784FE985FE14733073C
:1048D400F702B7171208938787FA3E97832784FE57
:1048E400A107BE853A85EFB09FC1832784FEDC5BB8
:1048F40095C3B787110883C747E22302F4FEB707BD
:104904000200034744FEA385E70001000F00F00FF7
:10491400010001A0832784FE985FB797110883A73D
:10492400475E9C5F63F0E708F32740F12320F4FE21
:10493400832704FE93F7F70F232EF4FC8327C4FD8B
:10494400232CF4FC832784FD232AF4FC832744FDD1
:1049540085E3370703008567BA9783A7C7FFB706C0
:10496400030013E717008567B69723AEE7FE3DA063
:10497400832744FD13972700B7170300BA9723280A
:10498400F4FC832704FD2326F4FC85472324F4FC4C
:10499400832784FC0327C4FC1CC30100010001001D
:1049A4000F00F00FEFC08FBD8327C4FE3E85B640D5
:1049B400264461618280797106D622D40018232EA0
:1049C400A4FC232CB4FC8327C4FD95E3B78711080A
:1049D40083C747E22303F4FEB7070200034764FEDC
:1049E400A385E70001000F00F00F010001A0EFC054
:1049F400FFD68327C4FD2326F4FEB707020083C72E
:104A0400B70093F7F70FA302F4FEB787110883C723
:104A140047E22302F4FEB7070200034744FEA385DE
:104A2400E70001000F00F00F834754FE2324F4FE37
:104A34008327C4FE83C70707A303F4FE8327C4FEAA
:104A440009472388E7068327C4FEFC57138717000A
:104A54008327C4FEF8D7034774FE85476316F70C13
:104A64008327C4FEDC5B95C3B787110883C747E27D
:104A7400A301F4FEB7070200034734FEA385E70051
:104A840001000F00F00F010001A0B797110883A7E0
:104A9400C762B1EB8327C4FEA1073E85EFB03FB9DF
:104AA4008327C4FE985FB797110883A7076063F94B
:104AB400E7008327C4FE985FB797110823A0E76037
:104AC4008327C4FE985FE1473307F702B71712083C
:104AD400938787FA3E978327C4FEA107BE853A854C
:104AE400EFB0FFA121A88327C4FE93870702BE85E8
:104AF400B717120813858709EFB07FA08327C4FE78
:104B0400985FB797110883A7475E9C5F63FEE70031
:104B1400832784FD89C7832784FD054798C3B797F6
:104B24001108054723A8E760832784FE93F7F70F4E
:104B34002301F4FE834724FEA300F4FEB70702001A
:104B4400034714FEA385E70001000F00F00F0100E6
:104B54000100B250225445618280797106D622D474
:104B64000018232CA4FC232EB4FC232AC4FCB797DE
:104B7400110803A7875F83A7C75F2324E4FE2326C6
:104B8400F4FEB797110883A7475EA1073E85EFB0EF
:104B94001FAA032784FDFD576317F7020327C4FDEB
:104BA400FD576312F702832744FD91CFB79711088D
:104BB40083A7475EA107BE85B71712081385870C24
:104BC400EFB0FF93F1A8032684FE8326C4FE0325D9
:104BD40084FD8325C4FD3307A6003A883338C80012
:104BE400B387B600B306F800B6872320E4FE232279
:104BF400F4FEB797110883A6475E032704FE8327B4
:104C040044FE98C6DCC60327C4FE832744FE63EE35
:104C1400E7000327C4FE832744FE6316F702032735
:104C240084FE832704FE63F0E702B797110803A705
:104C3400C75EB797110883A7475EA107BE853A856B
:104C4400EFB05F92B1A8B797110803A7875EB79733
:104C5400110883A7475EA107BE853A85EFB09F90F0
:104C6400B797110803A7076283A74762832644FE08
:104C74003E8663EDC600832644FE3E866392C602EA
:104C8400832604FEBA8763E3F60019A8B7961108D1
:104C9400032704FE832744FE23A0E66223A2F662D0
:104CA4000100B250225445618280011106CE22CC0B
:104CB4000010232604FEEF00301FB797110883A7C6
:104CC40087639DC3B79711089387C7630D478146D0
:104CD40013060010938501A2375500081305E5D487
:104CE400EFE00FBC2326A4FE8327C4FE95E3B78719
:104CF400110883C747E2A305F4FEB7070200034780
:104D0400B4FEA385E70001000F00F00F010001A02D
:104D14008327C4FE3E85F2406244056182805D7152
:104D240086C6A2C480082326A4FC2324B4FC232022
:104D3400C4FC2322D4FC232EE4FA2328F4FA232AE5
:104D440004FB232604FE8327C4FC95E3B7871108DC
:104D540083C747E2A305F4FEB70702000347B4FE86
:104D6400A385E70001000F00F00F010001A0B79731
:104D7400110883A78763D9CB832784FC2328F4FCF9
:104D8400032704FC832744FC232CE4FC232EF4FC9B
:104D94008327C4FC2320F4FE032784FC954763C8BF
:104DA400E704EFF0CFC22A8789476313F702B79766
:104DB400110883A78763930504FD0147032604FBB9
:104DC400832644FB3E85EFD06FAF2326A4FE3DA887
:104DD400B797110883A78763930504FD014701462C
:104DE40081463E85EFD08FAD2326A4FE05A0B7975C
:104DF400110883A78763130704FD81460326C4FBB8
:104E0400BA853E85EFD06FE72326A4FE8327C4FE30
:104E14003E85B640264461618280797106D622D4EB
:104E24000018232CA4FC232EB4FC2328C4FC232A1E
:104E3400D4FCB797110883A707639C4B9C4B23268C
:104E4400F4FE8327C4FEA1073E85EFB04FFE8327FF
:104E5400C4FE83C70703918BC9C78327C4FE985335
:104E6400DC53032584FD8325C4FD3306A700328863
:104E74003338E800B386B700B307D800BE8632855E
:104E8400B685832784FD0328C4FD832604FD0327F8
:104E940044FD2E86AA850325C4FECD24AA87A9CF66
:104EA400814701480147032684FD8326C4FD8145CB
:104EB4000325C4FEAD352324A4FE832784FE8DEF91
:104EC400B787110883C747E2A303F4FEB7070200BC
:104ED400034774FEA385E70001000F00F00F0100F3
:104EE40001A08327C4FE83C70703F99B13F7F70FB9
:104EF4008327C4FE2388E7028327C4FEDC570325E7
:104F0400C4FE82970100B2502254456182807971B7
:104F140006D622D40018232EA4FC930744FE3E8513
:104F2400BD2A2324A4FE2326B4FE832744FE3E8602
:104F3400032584FE8325C4FE1920BD2EF9BF5D71AF
:104F440086C6A2C48008232CA4FA232EB4FA232AEA
:104F5400C4FAEFE08FF1930784FC3E854D222324AD
:104F6400A4FE2326B4FE832784FC639307128327BD
:104F740044FB9DEF0327C4FB8327C4FE63EAE702D7
:104F84000327C4FB8327C4FE6318F700032784FBAD
:104F9400832784FE63EEE700EFE04FEF032684FEF1
:104FA4008326C4FE032584FB8325C4FBBD35DDA015
:104FB400832744FB81CFB797110883A747639C439A
:104FC40099E3854711A08147232AF4FAB79711087A
:104FD40083A88763032784FB8327C4FB032584FEFC
:104FE4008325C4FE3306A740328833380701B386CD
:104FF400B740B3870641BE863287B687832644FB13
:10500400BA853E864685EFE0CF80EFE02FE8AA8799
:10501400D1E3F32740F12322F4FE832744FE93F7E0
:10502400F70F2320F4FE832704FE232EF4FC8327AA
:10503400C4FD232CF4FC832784FD85E33707030098
:105044008567BA9783A7C7FFB706030013E717005E
:105054008567B69723AEE7FE3DA0832784FD1397AB
:105064002700B7170300BA97232AF4FC832744FDCB
:105074002328F4FC85472326F4FC8327C4FC032758
:1050840004FD1CC30100010001000F00F00F19A072
:10509400EFE0CFDF0100B640264461618280797180
:1050A40022D60018232EA4FCB797110883A7076300
:1050B4009C4399E3854711A081470327C4FD1CC382
:1050C4008327C4FD9C4389EFB797110883A707631F
:1050D4009C4B9843DC432324E4FE2326F4FE39A0AE
:1050E400814701482324F4FE232604FF032784FE7A
:1050F4008327C4FE3A85BE85325445618280797126
:1051040006D622D40018232EA4FCEFE04FFA232461
:10511400A4FE2326B4FEB797110803A7076483A748
:1051240047648326C4FE3E8663ECC6008326C4FE21
:105134003E86639DC600832684FEBA8763F8F60024
:1051440039218327C4FD054798C329A08327C4FDBB
:1051540023A00700B7961108032784FE8327C4FE03
:1051640023A0E66423A2F664032784FE8327C4FEF7
:105174003A85BE85B250225445618280397106DE7B
:1051840022DC8000232EA4FC2328B4FC232AC4FCA4
:105194002324D4FC2326E4FC2320F4FC232204FD52
:1051A400232604FE8326C4FD032704FD832744FD30
:1051B40098C6DCC68327C4FD0327C4FD98CF032704
:1051C40044FD8327C4FC63EFE706032744FD8327DC
:1051D400C4FC6318F700032704FD832784FC63E3FE
:1051E400E706032784FC8327C4FC032504FC8325EA
:1051F40044FC3306A740328833380701B386B740EE
:10520400B3870641BE868327C4FD9853DC533E858D
:10521400B68563EDA5003E85B6856315B500B287F6
:1052240063E6E70085472326F4FE41A0B7971108FB
:1052340003A747638327C4FDA107BE853A85EFB062
:105244006FB2A5A0032744FC8327C4FC63EEE700E8
:10525400032744FC8327C4FC631EF702032704FCD2
:10526400832784FC63F8E702032744FC832744FD77
:1052740063E2E702032744FC832744FD6318F70035
:10528400032704FC832704FD63E6E7008547232600
:10529400F4FE21A8B797110803A707638327C4FD69
:1052A400A107BE853A85EFB0EFAB8327C4FE3E85E8
:1052B400F2506254216182805D7186C6A2C4800866
:1052C40095A4832704FC63D70704930704FCA10770
:1052D4002326F4FE8327C4FE95E3B787110883C70A
:1052E40047E2A30DF4FCB70702000347B4FDA3850E
:1052F400E70001000F00F00F010001A08327C4FEA6
:1053040094438327C4FED8438327C4FE9C47BE85A9
:105314003A858296832704FC63C50720832704FD0E
:105324002324F4FE832784FEDC4F99C7832784FE5D
:10533400A1073E85EFB0AFAF9307C4FB3E85C133F1
:105344002320A4FE2322B4FE832704FC2547636B99
:10535400F71C13972700938701A3BA979C4382876E
:10536400832784FE83C7070393E7170013F7F70F18
:10537400832784FE2388E702032784FC8327C4FC55
:10538400832684FE8852CC523306A70032883338F1
:10539400E800B386B700B307D800BE863285B68569
:1053A400032784FC8327C4FC3E88BA87832604FE33
:1053B400032744FE2E86AA85032584FEC133AA87CB
:1053C40063820716832784FEDC57032584FE8297B5
:1053D400832784FE83C70703918B63850714032700
:1053E40084FC8327C4FC832684FE8852CC52330673
:1053F400A70032883338E800B386B700B307D80073
:10540400BE868147014801478145032584FEEFF0AC
:105414001F91232EA4FC8327C4FD63950710B7872F
:10542400110883C747E2230DF4FCB70702000347C2
:10543400A4FDA385E70001000F00F00F010001A007
:10544400832784FE83C70703F99B13F7F70F83278A
:1054540084FE2388E702F9A0832784FE83C7070319
:1054640093E7170013F7F70F832784FE2388E702D7
:10547400032784FC8327C4FC832684FE98D2DCD2D1
:10548400832784FE9053D453B287D58F95E3B7878F
:10549400110883C747E2A30CF4FCB70702000347D3
:1054A40094FDA385E70001000F00F00F010001A0A7
:1054B400832784FE9853DC53032504FE832544FE8E
:1054C4003306A70032883338E800B386B700B30741
:1054D400D800BE863285B685832704FE032844FEA1
:1054E400832604FE032744FE2E86AA85032584FE14
:1054F40071310DA8832784FE83C70703898B91E745
:10550400032584FEEFC04FDB31A8832784FE83C7C5
:105514000703F99B13F7F70F832784FE2388E70219
:1055240011A00100B797110883A78763130704FC30
:1055340001468146BA853E85EFD0CF90AA87E39293
:1055440007D801000100B6402644616182803971A8
:1055540006DE22DC800009AAB797110883A7076337
:105564009C4B9843DC432320E4FE2322F4FEB797AC
:10557400110883A707639C4B9C4B232EF4FC8327C1
:10558400C4FDA1073E85EFB08F8A8327C4FDDC5795
:105594000325C4FD82978327C4FD83C70703918B2A
:1055A400E1C78327C4FD8853CC53032604FE832616
:1055B40044FE3307A6003A883338C800B387B600E0
:1055C400B306F800B6872328E4FC232AF4FC032757
:1055D40044FD832744FE63EEE700032744FD83274D
:1055E40044FE6311F704032704FD832704FE63FBD1
:1055F400E7028326C4FD032704FD832744FD98C6E0
:10560400DCC68327C4FD0327C4FD98CFB7971108D0
:1056140003A707638327C4FDA107BE853A85EFA0CE
:105624007FF499A0814701480147032604FE83269D
:1056340044FE81450325C4FDEFF06FEE2326A4FC50
:105644008327C4FC95E3B787110883C747E2A30502
:10565400F4FCB70702000347B4FCA385E70001008C
:105664000F00F00F010001A0B797110883A707638B
:105674009C43E39307EEB797110883A70763232698
:10568400F4FEB797110803A74763B797110823A837
:10569400E762B79711080327C4FE23AAE762010053
:1056A400F250625421618280411106C622C400086E
:1056B400EFB02FE4B797110883A78763ADE7B71757
:1056C40012081385070EEFA0FFDCB7171208138525
:1056D400870FEFA03FDCB79711083717120813079D
:1056E400070E23A8E762B7971108371712081307A4
:1056F400870F23AAE7620146E1451545EFC01F84E1
:105704002A87B797110823ACE762B797110883A7D4
:10571400876391CBB797110803A78763938581A209
:105724003A85EFD0DF87EFB06FE50100B240224445
:1057340041018280011122CE00102326A4FE83277A
:10574400C4FE23A007008327C4FE41677D17D8C386
:105754000100724405618280011122CE00102326CB
:10576400A4FE2324B4FE832784FE98438327C4FE27
:1057740098D7832784FED8438327C4FED8D78327AA
:10578400C4FEDC4B13E717008327C4FED8CB01000B
:10579400724405618280011122CE00102326A4FEEA
:1057A4008327C4FE9C4313E717008327C4FE98C3D2
:1057B4000100724405618280011122CE001023266B
:1057C400A4FE2324B4FE8327C4FE032784FED8D773
:1057D4000100724405618280011122CE001023264B
:1057E400A4FE2324B4FE8327C4FED847832784FE63
:1057F4005D8F8327C4FED8C701007244056182808F
:10580400797122D60018232EA4FC232CB4FC832700
:10581400C4FDDC47032784FDF98F2326F4FE832788
:10582400C4FD984B832784FDF98F91C78327C4FE59
:1058340099C3854711A081473E85325445618280D2
:10584400011122CE00102326A4FE2324B4FE8327B4
:1058540084FE13C7F7FF8327C4FE98CB010072446C
:1058640005618280797122D600182326A4FE2324A0
:10587400B4FE2322C4FE232EF4FCB687A301F4FE57
:10588400BA872301F4FE834734FE89CB63CB070A2E
:105894001387F7FF894763E6E70A85A0832744FE59
:1058A400139727008327C4FEBA973E87832784FE75
:1058B4001CC3832744FE139727008327C4FE3E9707
:1058C4009167BA973E87834734FE1CC3832744FEFF
:1058D400139727008327C4FE3E97C167BA979C435A
:1058E400032744FE931627000327C4FEBA96416794
:1058F400369793E787011CC3B1A0832784FE1397CF
:1059040027008327C4FE3E979167BA973E87834753
:1059140034FE1CC3832784FE139727008327C4FE09
:105924003E97C167BA979C43032784FE93162700CA
:105934000327C4FEBA964167369793E787011CC3D1
:1059440011A001000100325445618280797122D690
:1059540000182326A4FE2324B4FE2322C4FE232EEF
:10596400F4FCB687A301F4FEBA872301F4FE83474F
:1059740034FE89CB63C0070A1387F7FF894763EBBB
:10598400E708A9A0832784FE139727008327C4FE72
:105994003E97A167BA973E87832744FE1CC383279B
:1059A40044FE139727008327C4FE3E97C167BA9726
:1059B4009C43032744FE931627000327C4FEBA968C
:1059C4004167369793E717001CC3B1A0832784FE71
:1059D400139727008327C4FE3E979167BA973E87A3
:1059E400834734FE1CC3832784FE13972700832731
:1059F400C4FE3E97C167BA979C43032784FE93165F
:105A040027000327C4FEBA964167369793E7170128
:105A14001CC311A0010001003254456182800111B0
:105A240022CE00102326A4FE2324B4FE2322C4FE87
:105A3400832744FE99CB8327C4FE984B832784FE97
:105A44005D8F8327C4FE98CB21A88327C4FE984B7F
:105A5400832784FE93C7F7FF7D8F8327C4FE98CBEB
:105A64000100724405618280011122CE00102326B8
:105A7400A4FE2324B4FE2322C4FE032744FE894744
:105A8400630CF706032744FE894763ECE708832782
:105A940044FE99C7032744FE8547630AF70251A0D1
:105AA4008327C4FE9847832784FE93C7F7FF7D8F1F
:105AB4008327C4FE98C78327C4FED847832784FE60
:105AC40093C7F7FF7D8F8327C4FED8C7A1A8832778
